{
  "_format": "hh3-artifact-1",
  "contractName": "SupplyChainTracker",
  "sourceName": "contracts/SupplyChainTracker.sol",
  "abi": [
    {
      "anonymous": false,
      "inputs": [
        {
          "indexed": false,
          "internalType": "uint256",
          "name": "batchId",
          "type": "uint256"
        },
        {
          "indexed": false,
          "internalType": "string",
          "name": "location",
          "type": "string"
        },
        {
          "indexed": false,
          "internalType": "string",
          "name": "crop",
          "type": "string"
        },
        {
          "indexed": false,
          "internalType": "string",
          "name": "farmerName",
          "type": "string"
        },
        {
          "indexed": false,
          "internalType": "address",
          "name": "owner",
          "type": "address"
        }
      ],
      "name": "ItemAdded",
      "type": "event"
    },
    {
      "anonymous": false,
      "inputs": [
        {
          "indexed": false,
          "internalType": "uint256",
          "name": "batchId",
          "type": "uint256"
        },
        {
          "indexed": false,
          "internalType": "enum SupplyChainTracker.Stage",
          "name": "newStage",
          "type": "uint8"
        },
        {
          "indexed": false,
          "internalType": "address",
          "name": "owner",
          "type": "address"
        }
      ],
      "name": "StageUpdated",
      "type": "event"
    },
    {
      "inputs": [
        {
          "internalType": "string",
          "name": "_location",
          "type": "string"
        },
        {
          "internalType": "string",
          "name": "_crop",
          "type": "string"
        },
        {
          "internalType": "string",
          "name": "_farmerName",
          "type": "string"
        }
      ],
      "name": "addItem",
      "outputs": [
        {
          "internalType": "uint256",
          "name": "",
          "type": "uint256"
        }
      ],
      "stateMutability": "nonpayable",
      "type": "function"
    },
    {
      "inputs": [
        {
          "internalType": "uint256",
          "name": "_batchId",
          "type": "uint256"
        }
      ],
      "name": "getItem",
      "outputs": [
        {
          "internalType": "uint256",
          "name": "batchId",
          "type": "uint256"
        },
        {
          "internalType": "string",
          "name": "location",
          "type": "string"
        },
        {
          "internalType": "string",
          "name": "crop",
          "type": "string"
        },
        {
          "internalType": "string",
          "name": "farmerName",
          "type": "string"
        },
        {
          "internalType": "enum SupplyChainTracker.Stage",
          "name": "stage",
          "type": "uint8"
        },
        {
          "internalType": "address",
          "name": "currentOwner",
          "type": "address"
        },
        {
          "internalType": "uint256",
          "name": "timestamp",
          "type": "uint256"
        }
      ],
      "stateMutability": "view",
      "type": "function"
    },
    {
      "inputs": [
        {
          "internalType": "enum SupplyChainTracker.Stage",
          "name": "_stage",
          "type": "uint8"
        }
      ],
      "name": "getStageName",
      "outputs": [
        {
          "internalType": "string",
          "name": "",
          "type": "string"
        }
      ],
      "stateMutability": "pure",
      "type": "function"
    },
    {
      "inputs": [
        {
          "internalType": "uint256",
          "name": "",
          "type": "uint256"
        }
      ],
      "name": "items",
      "outputs": [
        {
          "internalType": "uint256",
          "name": "batchId",
          "type": "uint256"
        },
        {
          "internalType": "string",
          "name": "location",
          "type": "string"
        },
        {
          "internalType": "string",
          "name": "crop",
          "type": "string"
        },
        {
          "internalType": "string",
          "name": "farmerName",
          "type": "string"
        },
        {
          "internalType": "enum SupplyChainTracker.Stage",
          "name": "stage",
          "type": "uint8"
        },
        {
          "internalType": "address",
          "name": "currentOwner",
          "type": "address"
        },
        {
          "internalType": "uint256",
          "name": "timestamp",
          "type": "uint256"
        }
      ],
      "stateMutability": "view",
      "type": "function"
    },
    {
      "inputs": [
        {
          "internalType": "uint256",
          "name": "_batchId",
          "type": "uint256"
        },
        {
          "internalType": "enum SupplyChainTracker.Stage",
          "name": "_newStage",
          "type": "uint8"
        }
      ],
      "name": "updateStage",
      "outputs": [],
      "stateMutability": "nonpayable",
      "type": "function"
    }
  ],
  "bytecode": "0x608060405260016002553480156013575f5ffd5b506116ab806100215f395ff3fe608060405234801561000f575f5ffd5b5060043610610055575f3560e01c80633129e77314610059578063339ba3491461008f578063911f8d81146100bf578063bfb231d2146100ef578063f405c96b14610125575b5f5ffd5b610073600480360381019061006e9190610c2c565b610141565b6040516100869796959493929190610d88565b60405180910390f35b6100a960048036038101906100a49190610f36565b6103f7565b6040516100b69190610fda565b60405180910390f35b6100d960048036038101906100d49190611016565b610648565b6040516100e69190611041565b60405180910390f35b61010960048036038101906101049190610c2c565b61082a565b60405161011c9796959493929190610d88565b60405180910390f35b61013f600480360381019061013a9190611061565b610a25565b005b5f60608060605f5f5f5f5f5f8a81526020019081526020015f206040518060e00160405290815f820154815260200160018201805461017f906110cc565b80601f01602080910402602001604051908101604052809291908181526020018280546101ab906110cc565b80156101f65780601f106101cd576101008083540402835291602001916101f6565b820191905f5260205f20905b8154815290600101906020018083116101d957829003601f168201915b5050505050815260200160028201805461020f906110cc565b80601f016020809104026020016040519081016040528092919081815260200182805461023b906110cc565b80156102865780601f1061025d57610100808354040283529160200191610286565b820191905f5260205f20905b81548152906001019060200180831161026957829003601f168201915b5050505050815260200160038201805461029f906110cc565b80601f01602080910402602001604051908101604052809291908181526020018280546102cb906110cc565b80156103165780601f106102ed57610100808354040283529160200191610316565b820191905f5260205f20905b8154815290600101906020018083116102f957829003601f168201915b50505050508152602001600482015f9054906101000a900460ff16600381111561034357610342610cd6565b5b600381111561035557610354610cd6565b5b81526020016004820160019054906101000a900473ffffffffffffffffffffffffffffffffffffffff1673ffffffffffffffffffffffffffffffffffffffff1673ffffffffffffffffffffffffffffffffffffffff1681526020016005820154815250509050805f015181602001518260400151836060015184608001518560a001518660c00151975097509750975097509750975050919395979092949650565b5f5f84848460405160200161040e93929190611136565b60405160208183030381529060405280519060200120905060015f8281526020019081526020015f205f9054906101000a900460ff1615610484576040517f08c379a000000000000000000000000000000000000000000000000000000000815260040161047b906111d6565b60405180910390fd5b5f60025f81548092919061049790611221565b9190505590506040518060e001604052808281526020018781526020018681526020018581526020015f60038111156104d3576104d2610cd6565b5b81526020013373ffffffffffffffffffffffffffffffffffffffff168152602001428152505f5f8381526020019081526020015f205f820151815f015560208201518160010190816105259190611408565b50604082015181600201908161053b9190611408565b5060608201518160030190816105519190611408565b506080820151816004015f6101000a81548160ff0219169083600381111561057c5761057b610cd6565b5b021790555060a08201518160040160016101000a81548173ffffffffffffffffffffffffffffffffffffffff021916908373ffffffffffffffffffffffffffffffffffffffff16021790555060c082015181600501559050506001805f8481526020019081526020015f205f6101000a81548160ff0219169083151502179055507fe13063ffe64203deb2497a2f9852892d746bd60f709fef3644cbd1a9e5c3818f81878787336040516106349594939291906114d7565b60405180910390a180925050509392505050565b60605f600381111561065d5761065c610cd6565b5b8260038111156106705761066f610cd6565b5b036106b2576040518060400160405280600981526020017f48617276657374656400000000000000000000000000000000000000000000008152509050610825565b600160038111156106c6576106c5610cd6565b5b8260038111156106d9576106d8610cd6565b5b0361071b576040518060400160405280600981526020017f50726f63657373656400000000000000000000000000000000000000000000008152509050610825565b6002600381111561072f5761072e610cd6565b5b82600381111561074257610741610cd6565b5b03610784576040518060400160405280600881526020017f5061636b616765640000000000000000000000000000000000000000000000008152509050610825565b60038081111561079757610796610cd6565b5b8260038111156107aa576107a9610cd6565b5b036107ec576040518060400160405280600481526020017f536f6c64000000000000000000000000000000000000000000000000000000008152509050610825565b6040518060400160405280600781526020017f556e6b6e6f776e0000000000000000000000000000000000000000000000000081525090505b919050565b5f602052805f5260405f205f91509050805f01549080600101805461084e906110cc565b80601f016020809104026020016040519081016040528092919081815260200182805461087a906110cc565b80156108c55780601f1061089c576101008083540402835291602001916108c5565b820191905f5260205f20905b8154815290600101906020018083116108a857829003601f168201915b5050505050908060020180546108da906110cc565b80601f0160208091040260200160405190810160405280929190818152602001828054610906906110cc565b80156109515780601f1061092857610100808354040283529160200191610951565b820191905f5260205f20905b81548152906001019060200180831161093457829003601f168201915b505050505090806003018054610966906110cc565b80601f0160208091040260200160405190810160405280929190818152602001828054610992906110cc565b80156109dd5780601f106109b4576101008083540402835291602001916109dd565b820191905f5260205f20905b8154815290600101906020018083116109c057829003601f168201915b505050505090806004015f9054906101000a900460ff16908060040160019054906101000a900473ffffffffffffffffffffffffffffffffffffffff16908060050154905087565b3373ffffffffffffffffffffffffffffffffffffffff165f5f8481526020019081526020015f2060040160019054906101000a900473ffffffffffffffffffffffffffffffffffffffff1673ffffffffffffffffffffffffffffffffffffffff1614610ac6576040517f08c379a0000000000000000000000000000000000000000000000000000000008152600401610abd90611587565b60405180910390fd5b60015f5f8481526020019081526020015f206004015f9054906101000a900460ff166003811115610afa57610af9610cd6565b5b610b0491906115a5565b816003811115610b1757610b16610cd6565b5b14610b57576040517f08c379a0000000000000000000000000000000000000000000000000000000008152600401610b4e90611622565b60405180910390fd5b805f5f8481526020019081526020015f206004015f6101000a81548160ff02191690836003811115610b8c57610b8b610cd6565b5b0217905550425f5f8481526020019081526020015f20600501819055507f20f13d5051a99e5a3e1fe067b2dad576cc3253d70a33e0c746becebd65d4baa4828233604051610bdc93929190611640565b60405180910390a15050565b5f604051905090565b5f5ffd5b5f5ffd5b5f819050919050565b610c0b81610bf9565b8114610c15575f5ffd5b50565b5f81359050610c2681610c02565b92915050565b5f60208284031215610c4157610c40610bf1565b5b5f610c4e84828501610c18565b91505092915050565b610c6081610bf9565b82525050565b5f81519050919050565b5f82825260208201905092915050565b8281835e5f83830152505050565b5f601f19601f8301169050919050565b5f610ca882610c66565b610cb28185610c70565b9350610cc2818560208601610c80565b610ccb81610c8e565b840191505092915050565b7f4e487b71000000000000000000000000000000000000000000000000000000005f52602160045260245ffd5b60048110610d1457610d13610cd6565b5b50565b5f819050610d2482610d03565b919050565b5f610d3382610d17565b9050919050565b610d4381610d29565b82525050565b5f73ffffffffffffffffffffffffffffffffffffffff82169050919050565b5f610d7282610d49565b9050919050565b610d8281610d68565b82525050565b5f60e082019050610d9b5f83018a610c57565b8181036020830152610dad8189610c9e565b90508181036040830152610dc18188610c9e565b90508181036060830152610dd58187610c9e565b9050610de46080830186610d3a565b610df160a0830185610d79565b610dfe60c0830184610c57565b98975050505050505050565b5f5ffd5b5f5ffd5b7f4e487b71000000000000000000000000000000000000000000000000000000005f52604160045260245ffd5b610e4882610c8e565b810181811067ffffffffffffffff82111715610e6757610e66610e12565b5b80604052505050565b5f610e79610be8565b9050610e858282610e3f565b919050565b5f67ffffffffffffffff821115610ea457610ea3610e12565b5b610ead82610c8e565b9050602081019050919050565b828183375f83830152505050565b5f610eda610ed584610e8a565b610e70565b905082815260208101848484011115610ef657610ef5610e0e565b5b610f01848285610eba565b509392505050565b5f82601f830112610f1d57610f1c610e0a565b5b8135610f2d848260208601610ec8565b91505092915050565b5f5f5f60608486031215610f4d57610f4c610bf1565b5b5f84013567ffffffffffffffff811115610f6a57610f69610bf5565b5b610f7686828701610f09565b935050602084013567ffffffffffffffff811115610f9757610f96610bf5565b5b610fa386828701610f09565b925050604084013567ffffffffffffffff811115610fc457610fc3610bf5565b5b610fd086828701610f09565b9150509250925092565b5f602082019050610fed5f830184610c57565b92915050565b60048110610fff575f5ffd5b50565b5f8135905061101081610ff3565b92915050565b5f6020828403121561102b5761102a610bf1565b5b5f61103884828501611002565b91505092915050565b5f6020820190508181035f8301526110598184610c9e565b905092915050565b5f5f6040838503121561107757611076610bf1565b5b5f61108485828601610c18565b925050602061109585828601611002565b9150509250929050565b7f4e487b71000000000000000000000000000000000000000000000000000000005f52602260045260245ffd5b5f60028204905060018216806110e357607f821691505b6020821081036110f6576110f561109f565b5b50919050565b5f81905092915050565b5f61111082610c66565b61111a81856110fc565b935061112a818560208601610c80565b80840191505092915050565b5f6111418286611106565b915061114d8285611106565b91506111598284611106565b9150819050949350505050565b7f42617463682077697468207468697320636f6d62696e6174696f6e20616c72655f8201527f6164792065786973747300000000000000000000000000000000000000000000602082015250565b5f6111c0602a83610c70565b91506111cb82611166565b604082019050919050565b5f6020820190508181035f8301526111ed816111b4565b9050919050565b7f4e487b71000000000000000000000000000000000000000000000000000000005f52601160045260245ffd5b5f61122b82610bf9565b91507fffffffffffffffffffffffffffffffffffffffffffffffffffffffffffffffff820361125d5761125c6111f4565b5b600182019050919050565b5f819050815f5260205f209050919050565b5f6020601f8301049050919050565b5f82821b905092915050565b5f600883026112c47fffffffffffffffffffffffffffffffffffffffffffffffffffffffffffffffff82611289565b6112ce8683611289565b95508019841693508086168417925050509392505050565b5f819050919050565b5f6113096113046112ff84610bf9565b6112e6565b610bf9565b9050919050565b5f819050919050565b611322836112ef565b61133661132e82611310565b848454611295565b825550505050565b5f5f905090565b61134d61133e565b611358818484611319565b505050565b5b8181101561137b576113705f82611345565b60018101905061135e565b5050565b601f8211156113c05761139181611268565b61139a8461127a565b810160208510156113a9578190505b6113bd6113b58561127a565b83018261135d565b50505b505050565b5f82821c905092915050565b5f6113e05f19846008026113c5565b1980831691505092915050565b5f6113f883836113d1565b9150826002028217905092915050565b61141182610c66565b67ffffffffffffffff81111561142a57611429610e12565b5b61143482546110cc565b61143f82828561137f565b5f60209050601f831160018114611470575f841561145e578287015190505b61146885826113ed565b8655506114cf565b601f19841661147e86611268565b5f5b828110156114a557848901518255600182019150602085019450602081019050611480565b868310156114c257848901516114be601f8916826113d1565b8355505b6001600288020188555050505b505050505050565b5f60a0820190506114ea5f830188610c57565b81810360208301526114fc8187610c9e565b905081810360408301526115108186610c9e565b905081810360608301526115248185610c9e565b90506115336080830184610d79565b9695505050505050565b7f4e6f74206f776e657200000000000000000000000000000000000000000000005f82015250565b5f611571600983610c70565b915061157c8261153d565b602082019050919050565b5f6020820190508181035f83015261159e81611565565b9050919050565b5f6115af82610bf9565b91506115ba83610bf9565b92508282019050808211156115d2576115d16111f4565b5b92915050565b7f496e76616c6964207374616765207472616e736974696f6e00000000000000005f82015250565b5f61160c601883610c70565b9150611617826115d8565b602082019050919050565b5f6020820190508181035f83015261163981611600565b9050919050565b5f6060820190506116535f830186610c57565b6116606020830185610d3a565b61166d6040830184610d79565b94935050505056fea26469706673582212209c445de7b11731cce6ae6dcb0b4b9e5c0c5ed6ff19f0de2271a2a3be1ef16c8664736f6c634300081c0033",
  "linkReferences": {},
  "deployedLinkReferences": {},
  "immutableReferences": {},
  "inputSourceName": "project/contracts/SupplyChainTracker.sol",
  "buildInfoId": "solc-0_8_28-78434c7adb2321c514d17f071d3dde86fd189fdb"
}