{
    "contractName": "SupplyChainTrackerTest",
    "abi": [
        {
            "inputs": [],
            "name": "beforeEach",
            "outputs": [],
            "stateMutability": "nonpayable",
            "type": "function"
        },
        {
            "inputs": [],
            "name": "testAddItem",
            "outputs": [],
            "stateMutability": "nonpayable",
            "type": "function"
        },
        {
            "inputs": [],
            "name": "testUpdateStage",
            "outputs": [],
            "stateMutability": "nonpayable",
            "type": "function"
        }
    ],
    "bytecode": "60808060405234601557610877908161001a8239f35b5f80fdfe6080806040526004361015610012575f80fd5b5f905f3560e01c90816337b7a464146101f2575080636331e7d41461017357639875c0ad1461003f575f80fd5b3461016d578060031936011261016d57805481906001600160a01b0316803b156101705781809160246040518094819363be63404560e01b8352600160048401525af1801561014d57610158575b50508054604051633129e77360e01b81526001600482015290608090829060249082906001600160a01b03165afa90811561014d57829161011e575b506100d760018251146103df565b6020810151600481101561010a57906100f361010792156103df565b604001516001600160a01b031630146103df565b80f35b634e487b7160e01b83526021600452602483fd5b610140915060803d608011610146575b6101388183610341565b810190610377565b5f6100c9565b503d61012e565b6040513d84823e3d90fd5b8161016291610341565b61016d57805f61008d565b80fd5b50fd5b503461016d578060031936011261016d576040516104478082019082821067ffffffffffffffff8311176101de579082916103fb8339039082f080156101d15781546001600160a01b0319166001600160a01b039190911617815580f35b50604051903d90823e3d90fd5b634e487b7160e01b84526041600452602484fd5b90503461033d575f36600319011261033d575f546001600160a01b0316803b1561033d57816024815f809463be63404560e01b8352600260048401525af180156103325761031f575b50805481906001600160a01b0316803b156101705781809160446040518094819363f405c96b60e01b835260026004840152600160248401525af1801561014d5761030a575b50508054604051633129e77360e01b81526002600482015290608090829060249082906001600160a01b03165afa801561014d5760209183916102eb575b50015160048110156102d757600161010791146103df565b634e487b7160e01b82526021600452602482fd5b610304915060803d608011610146576101388183610341565b5f6102bf565b8161031491610341565b61016d57805f610281565b61032b91505f90610341565b5f5f61023b565b6040513d5f823e3d90fd5b5f80fd5b90601f8019910116810190811067ffffffffffffffff82111761036357604052565b634e487b7160e01b5f52604160045260245ffd5b9081608091031261033d57604051906080820182811067ffffffffffffffff82111761036357604052805182526020810151600481101561033d5760208301526040810151906001600160a01b038216820361033d5760609160408401520151606082015290565b156103e657565b634e487b7160e01b5f52600160045260245ffdfe6080806040523460155761042d908161001a8239f35b5f80fdfe60806040526004361015610011575f80fd5b5f3560e01c80633129e773146102ee578063be6340451461021a578063bfb231d2146101be5763f405c96b14610045575f80fd5b346101ba5760403660031901126101ba5760043560243560048110156101ba575f8281526020819052604090206001015460081c6001600160a01b0316330361018957815f525f60205260ff600160405f200154166004811015610175576001810180911161016157810361011c57816101136060927f20f13d5051a99e5a3e1fe067b2dad576cc3253d70a33e0c746becebd65d4baa4945f525f6020526100f381600160405f20016103df565b825f525f60205242600260405f200155604051928352602083019061039e565b336040820152a1005b60405162461bcd60e51b815260206004820152601860248201527f496e76616c6964207374616765207472616e736974696f6e00000000000000006044820152606490fd5b634e487b7160e01b5f52601160045260245ffd5b634e487b7160e01b5f52602160045260245ffd5b60405162461bcd60e51b81526020600482015260096024820152682737ba1037bbb732b960b91b6044820152606490fd5b5f80fd5b346101ba5760203660031901126101ba576004355f525f602052608060405f2080549060026001820154910154906040519283526102026020840160ff831661039e565b60081c6001600160a01b031660408301526060820152f35b346101ba5760203660031901126101ba57600435805f525f60205260405f20546102b3576102466103ab565b9080825260208201905f8252604083019133835260608401914283525f525f60205260405f20935184556001840190519260048410156101755761028c600294836103df565b518154610100600160a81b03191660089190911b610100600160a81b031617905551910155005b60405162461bcd60e51b81526020600482015260136024820152724974656d20616c72656164792065786973747360681b6044820152606490fd5b346101ba5760203660031901126101ba575f606061030a6103ab565b82815282602082015282604082015201526004355f525f60205260405f206103306103ab565b8154815260018201549160ff83169260208301916004851015610175576002610387916080968552604086019360018060a01b039060081c168452015492606085019384526040519451855251602085019061039e565b516001600160a01b03166040830152516060820152f35b9060048210156101755752565b604051906080820182811067ffffffffffffffff8211176103cb57604052565b634e487b7160e01b5f52604160045260245ffd5b9060048110156101755760ff8019835416911617905556fea26469706673582212207d41a80d21d5bc8b588fe52a567ee85b3d692df6eed564dc7d0c61f7bd1e636664736f6c634300081e0033a2646970667358221220aadf541557fbd4968b95c8b57a66d5ddd9c4313e8d15b7c1ab23d1180dfb7db364736f6c634300081e0033",
    "sourcePath": "/workspaces/bruv/solidity_contracts/SupplyChainTrackerTest.sol",
    "compiler": {
        "name": "solc",
        "version": "0.8.30+commit.73712a01"
    },
    "functionHashes": {
        "beforeEach()": "6331e7d4",
        "testAddItem()": "9875c0ad",
        "testUpdateStage()": "37b7a464"
    },
    "gasEstimates": {
        "creation": {
            "codeDepositCost": "433400",
            "executionCost": "475",
            "totalCost": "433875"
        },
        "external": {
            "beforeEach()": "infinite",
            "testAddItem()": "infinite",
            "testUpdateStage()": "infinite"
        }
    }
}